:020000040800F2
:10000000D807012031030008390300083B0300082A
:100010003D0300083F030008410300080000000002
:100020000000000000000000000000004303000882
:1000300045030008000000004703000849030008CA
:100040004B0300084B0300084B0300084B03000858
:100050004B0300084B0300084B0300084B03000848
:100060004B0300084B0300084B0300084B03000838
:100070004B0300084B0300084B0300084B03000828
:100080004B0300084B0300084B0300084B03000818
:100090004B0300084B0300084B0300084B03000808
:1000A0004B0300084B0300084B0300084B030008F8
:1000B0004B0300084B030008991E00084B0300087F
:1000C0004B0300084B0300084B0300084B030008D8
:1000D0004B0300084B0300084B0300084B030008C8
:1000E000491D00084B0300084B0300084B030008A0
:1000F000312000084B0300084B0300084B030008A5
:100100004B0300084B0300084B0300084B03000897
:100110004B0300084B030008B11F00080120000832
:100120004B0300084B0300084B0300084B03000877
:100130004B0300084B0300084B0300084B03000867
:100140004B0300084B0300084B0300084B03000857
:100150004B0300084B0300084B0300084B03000847
:100160004B0300084B0300084B0300084B03000837
:100170004B0300084B0300084B030008000000007D
:100180004B0300084B0300084B0300084B03000817
:100190004B0300084B0300084B0300084B03000807
:1001A0004B0300084B0300084B0300084B030008F7
:1001B0004B0300084B0300084B0300084B030008E7
:1001C0004B0300084B03000800F002F800F09EF813
:1001D0000AA090E8000C82448344AAF10107DA45A2
:1001E00001D100F093F8AFF2090EBAE80F0013F056
:1001F000010F18BFFB1A43F0010318477C3B0000B6
:100200009C3B0000103A24BF78C878C1FAD8520746
:1002100024BF30C830C144BF04680C607047000080
:100220000023002400250026103A28BF78C1FBD8FF
:10023000520728BF30C148BF0B6070476E2900F0DD
:100240008381702900F0B982662903F099846529B9
:1002500003F09684672903F09384612903F0928464
:1002600003681B0A28BF41F08001692900F0308132
:10027000642900F02D81752900F02A816F2900F092
:100280004782782900F08582E92900F0E181E4299C
:1002900000F0DE81F52900F0DB81EF2900F04482D7
:1002A000F82900F084820368DB0928BF41F080014F
:1002B000632900F09D87732900F0A287E32900F0ED
:1002C000AD87F32900F0B287002070471FB503F017
:1002D0004AFC9DE8030001F097FA01F09DF8040044
:1002E0000020002103F0B2FB401C606000200021D0
:1002F00003F096FBE06000F0A1FF00F017F88DE836
:100300000F001FBD10B501F002F810BD01F056F846
:100310001146FFF7DBFF02F077FC01F01DFA03B492
:10032000FFF7F0FF03BC01F0E1FB000001F046BC69
:100330000948804709480047FEE7FEE7FEE7FEE779
:10034000FEE7FEE7FEE7FEE7FEE7FEE704480549B5
:10035000054A064B70470000791E0008C9010008D5
:10036000D8010120D8070120D8030120D80301209B
:100370000FB4044910B503AA029800F0F9F810BCB4
:100380005DF814FB6C00012030B44FF0013C50F8D4
:10039000042BCCFA52F451F8043BD51A20D1FCB905
:1003A00050F8042BCCFA52F451F8043BD51A17D16B
:1003B000B4B950F8042BCCFA52F451F8043BD51AD6
:1003C0000ED16CB950F8042BCCFA52F451F8043B1E
:1003D000D51A05D1002CDAD030BC4FF000007047A0
:1003E00029BAB1FA81F111F01801D1F1200084404D
:1003F000F2D1CA40CB4012F0FF0213F0FF0330BC31
:10040000D01A704770477047704770B504468569C9
:100410000068C10601D5302600E02026C00707D0BD
:1004200070BDD4E9012130469047206A401C20620B
:100430006D1EF6D570BD70B5044685690078C0079D
:1004400007D170BDD4E9012120209047206A401CCB
:1004500020626D1EF6D570BD09684A0501D540B20F
:100460007047C905FCD500B2704709684A0501D537
:10047000C0B27047C905FCD580B2704770B50C4654
:100480000546012A05D02878800600D5EA690023B0
:1004900002E0012305E05B1C934202D2E05C0028ED
:1004A000F9D1A869E618C01AA861286A1844286218
:1004B0002846FFF7AAFF04E0D5E9012114F8010B53
:1004C0009047B442F8D32846FFF7B5FF70BD00004F
:1004D0002DE9F0410646002410687529314616A51D
:1004E00010D0FFF7B9FF002802DA404213A507E059
:1004F00031688A0701D512A502E0490704D511A584
:10050000012401E0FFF7B1FF00210A2206F12407D0
:1005100009E0B0FBF2FCB0FBF2F302FB1C00303050
:1005200078541846491C0028F3D123462A46304601
:10053000BDE8F04100F055BA000000002D000000B9
:100540002B0000002000000011680268006A5305BB
:1005500001D508700AE0D30501D5088006E013062E
:1005600003D5C217C1E9000200E00860012070470E
:10057000074B70B50D467B4400F01DFE044628462F
:1005800000F058FE10B14FF0FF3070BD204670BD36
:10059000772600002DE9FF5F15468A460446DFF8FE
:1005A000AC80F8440027D8E900103E46CDE90010A1
:1005B00010E03AF816106A4602A800F0DBFE411C73
:1005C00007D02178890603D5E269391891420DD800
:1005D0000744761C2078800602D5E069B84205DD24
:1005E000AE42E6DB3AF816000028E2D1A069C01B53
:1005F000A0612046FFF709FFD8E90010CDE90010FF
:10060000002017E03AF818106A4602A800F0B2FE7F
:10061000B0F1FF3F81460BD000250DF1080B05E03E
:10062000D4E901211BF8050090476D1C4D45F7D317
:1006300008F10100B0428046E4DB206A38442062C1
:100640002046FFF7F8FEBDE8FF9F0000E2350000FE
:100650002DE9F0418046D21D22F007020025D2E9A3
:100660000002F52915A614D0011E72F1000106DA68
:100670000023D0EB030063EB020211A608E0D8F8D8
:1006800000108B0701D50FA602E0490701D50EA681
:1006900001251146002408F1240704E000F05CF96C
:1006A00030323A55641C50EA0102F7D12B463246EB
:1006B00021464046BDE8F04100F093B9000000003B
:1006C0002D0000002B0000002000000030B40021AD
:1006D00000F1240408E002F00705D208303542EAB0
:1006E0004372DB086554491C52EA0305F3D10468E0
:1006F000002310A2250708D504F020040C4304D0E1
:10070000C46901230CA2641EC46130BC00F069B945
:1007100010B5044621461068FFF7A7FE02462046A2
:10072000BDE810400023D1E7D21D22F00701D1E936
:100730000023CBE70000000030000000F0B40D46BD
:100740000188090502D5214C7C4402E01F4C7C4401
:100750000E34002100F1240608E002F00F07120910
:10076000E75D42EA03721B097754491C52EA03070A
:10077000F3D102780023120704D5702D06D009B1F9
:10078000022311342246F0BC00F02BB901231034AF
:10079000F8E770B504460D4621461068FFF765FE80
:1007A000024629462046BDE870400023C6E7D21D18
:1007B00022F00703D3E90023C0E70368126843F07F
:1007C000200303600823C3610023B7E7443400001B
:1007D0002DE9F05F894604464FF0000ADFF874B156
:1007E000FB44C0F820A02046E1688847002874D068
:1007F000252806D0D4E901219047206A401C2062B8
:10080000F1E700265F462046E16888472028054634
:1008100007DB312D05D2781910F8200C08B10643FA
:10082000F1E7B00701D526F00406C4F81CA00027A4
:10083000C4F818A02A2D09D0284603F0E9F838B3E7
:1008400004EB8708303DC8F8185019E059F8041B2C
:10085000204604EB87029161E1688847012F054635
:1008600018D1E069002820DA26F020061DE0D8F82B
:10087000180000EB800005EB40003038C8F8180085
:100880002046E1688847054603F0C2F80028EED10B
:10089000012F0AD02E2D08D12046E16888477F1C01
:1008A0000546022F46F02006C4DBA069002803DAC3
:1008B000404246F00106A061F00701D026F0100684
:1008C0006C2D0BD0682D09D04C2D39D06A2D35D028
:1008D000742D35D07A2D33D016E038E0E1682F46FC
:1008E00020468847B842054609D16C2F26D04FF4E0
:1008F0008060E168064320468847054604E06C2F87
:100900001AD04FF4807006430DB3A5F141001928A9
:1009100002D8203546F400664A462946204626601D
:100920004E46FFF78BFC80B101280BD0F61D26F058
:10093000070000F1080956E74020E4E78020D8E7E7
:100940000020D6E706F104094DE7284652E7206A61
:10095000BDE8F09FD433000030B5B0F10A0271F168
:1009600000034FEA900E4EEA817EB0EB0E0061EB81
:1009700091014FEA101E4EEA017E10EB0E0041EB92
:1009800011114FEA102E4EEA016E10EB0E0041EBF2
:1009900011214FEA104E4EEA014E10EB0E0041EBD2
:1009A0001141401841F100014FEAD00040EA417086
:1009B0004FEAD1014FEA810444EA907410EB8005BC
:1009C00044EB01046D1944EB0404521BA3414FF0A6
:1009D000000348BF0A3200D530BD401C41F1000180
:1009E00030BD2DE9F0470D4699469246044600F188
:1009F00024080168880604D5E06921F0100121600F
:100A000000E00120A84201DD471B00E00027A169AA
:100A10007A1902EB0900081AA0612078C00602D4F6
:100A20002046FFF7F2FC002608E0D4E901211AF87D
:100A300006009047206A401C761C20624E45F4DB7D
:100A40002078C0060AD52046FFF7DFFC06E0D4E98F
:100A5000012130209047206A401C2062381EA7F1F7
:100A60000107F4DC07E0D4E9012118F805009047FC
:100A7000206A401C2062281EA5F10105F3DC2046F7
:100A8000FFF7D9FC2078000602D50220BDE8F087E8
:100A90000120FBE72DE9FF4F0C461E464FF0FF37C4
:100AA0008BB0D2E90001DDF860800A908A46C1F37C
:100AB0000A5505B93D46002108464FF00000BAF13D
:100AC000000F00F4400005DA00EB80004FF4400115
:100AD00001EA50004FEA9059B9F1010F00DDB94623
:100AE0000A9850EA4A000ED044F61050A5F2FF359D
:100AF00045432F14B8F1000F1ED07542291E1EDD8C
:100B0000C9F100021CE0B8F1010F4FF0000001D064
:100B1000302103E0F24305E02154401CB042FBDBEE
:100B200030460022002121540B99C1F80880C1E908
:100B300000200FB0BDE8F08FBD1B6D1CDEE74A46FC
:100B400000DA694206A800F0D3FC06AB93E8070080
:100B500003AB83E8070050460A9902F079FB8DE861
:100B60000700A0F500501F3800900398002D0ADD03
:100B700042F21F014A460844002303A90390684635
:100B800002F0E2FD09E0A0F500504A461F380023BC
:100B900003A90390684602F0ECFD8DE8070000040D
:100BA000000C03D04FF0FF30410800E01046B8F1D0
:100BB000000F03D00022009215461EE0751E05D4DA
:100BC000FFF7CAFE303262556D1EF9D5B3460122D9
:100BD000084302D000227F1C04E02078302801D195
:100BE00000227F1E002A099784D01DE0112D07DA0C
:100BF000FFF7B2FE303262556D1C50EA0102F5D1AA
:100C0000084302D00098C8B10EE00021681E05E03C
:100C1000235C625C63542254401E491C8142F7DB12
:100C2000AB46A81B401E0990002004F80B000B984F
:100C3000099AC0F80880C0E9002B7AE711264FF026
:100C4000000857E72DE9F04F88460446D21D22F0F0
:100C5000070191B0D1E90001CDE90A0102F0C0FE1F
:100C600002460B98C00F01D02D2007E020688107B5
:100C700001D52B2002E0202101EAC000032A0990BF
:100C800001D0072A05DB03464146204600F0F0FB71
:100C90000BE12078800601D5E06900E00620B8F17C
:100CA000650F814606D0B8F1660F18D0B8F1670F0E
:100CB00070D131E00020B9F1110F009001DB112358
:100CC00001E009F101030AAA01A90CA8FFF7E2FE5D
:100CD000DDE90C70002609F10105834647E001209B
:100CE0004B4600904FF000470AAA01A90CA8FFF755
:100CF000D1FEDDE90DB00C995D46002610B909F171
:100D000001000D18B9EB050003D4C0F1FF3609F15D
:100D10000105A5EB09002BE0B9F1010F01DA4FF055
:100D200001090020B9F1110F0090484601DD11239F
:100D300000E003460AAA01A90CA8FFF7ABFEDDE913
:100D40000C704D4600268346207800070AD4AB4538
:100D500000DA5D4601A8012D04DD411911F8011CDE
:100D6000302907D04F4502DA17F1040F04DA0120C9
:100D700082460FE06D1EEEE7002F02DCED1B3E44C5
:100D800003E0781CA84200DD7D1CB81B00F1010ABD
:100D90004FF000472078000703D4AA4501DB4FF04D
:100DA000FF3A0021B7F1004F0DF143088DF84310D1
:100DB00024D002202B23002F01DA7F422D230A2189
:100DC000021EA0F1010000DC5FB197FBF1FC97FB74
:100DD000F1F201FB1C7C17460CF1300C08F801CD38
:100DE000EEE7A8F1010003702188090501D545212E
:100DF00000E06521A0F1010800F8011C09980FA985
:100E0000A1EB0807FF1D00B10120411901EBEA70B9
:100E1000A1693844081A401EA0612078C00602D497
:100E20002046FFF7F2FA099828B1D4E9012190474A
:100E3000206A401C20622078C00622D52046FFF799
:100E4000E4FA1EE0002E04DBB34502DD01A8805D5C
:100E500000E03020D4E901219047206A401C206244
:100E6000761CAAF101005FEA000A0AD100F0D4FA68
:100E7000C0680168405CD4E901219047206A401CA9
:100E80002062281EA5F10105DCDC07E0D4E9012180
:100E900018F8010B9047206A401C2062381EA7F109
:100EA0000107F3DC2046FFF7C6FA032011B041E644
:100EB0002DE9F04F04460D46D21D22F0070089B0FF
:100EC000D0E900974846394602F08AFD0246F80FFD
:100ED00001D02D2307E02068810701D52B2302E0F4
:100EE000202101EAC0038DF820300BB1012000E081
:100EF0000020032A824601D0072A04DB2946204627
:100F000000F0B6FA3FE12078800601D40D2500E01C
:100F1000E569C7F30A560D2D49DA00214FEA175B40
:100F200008464FF00000002F00F4400007DA00EB05
:100F300080004FF4400100EBD07001EA60008115A1
:100F4000012901DD4FF0FF3100224FEA850CBCF191
:100F5000180F06D31346ACF118004FF08052C24070
:100F600003E04FF4801323FA0CF30CF10C0CBCF1EA
:100F7000200F04D3ACF1200C09FA0CF001E007FAC1
:100F80000CF000294FF0004801DD18B90FE00ED138
:100F900040450CD319EB02095F4121B9404502D10C
:100FA0009F4329EA0209BBEB175F00D0761C20881B
:100FB000000502D57B48784402E07A487844193825
:100FC00008AA302302F80A30037C0AF10101002E3E
:100FD0000AF1020A53546A4602DC4FF0300101E084
:100FE0004FF031014FF001088DF8001002D0A6F249
:100FF000FF3603E059EA470100D06B4E002D02DCBA
:101000002178090704D54FF002082E218DF8011030
:10101000C44600210BE0C7F303433F01C35C491CF6
:101020006D1E02F80830052908F1010801DA002DCB
:10103000F1DC00210CE000EB1973491C1B786D1EDC
:10104000082902F808304FEA091908F1010801DA05
:10105000002DF0DC21688B0602D516E0A8F101080E
:10106000E04505DD02EB080313F8013C302BF5D019
:10107000B8F1000F09DD02EB080313F8013C2E2B39
:1010800003D1090701D4A8F10108002D05DD3E2197
:1010900002F808106D1E08F10108407C002E02F8CD
:1010A000080008F1010804DA2D20764202F8080051
:1010B00002E02B2002F808000A214FF47A708642E1
:1010C00008F101080BDB96FBF0F3303302F808302F
:1010D00096FBF0F308F1010800FB136601E0642EB3
:1010E0000CDB642096FBF0F3303302F8083096FBFB
:1010F000F0F308F1010800FB136601E00A2E06DB9D
:1011000096FBF1F0303002F8080008F1010896FB78
:10111000F1F001FB1060303002F80800A16908F11D
:10112000010808EB050202EB0A00081AA06120780A
:10113000C00602D42046FFF768F9216A08AE01EB29
:101140000A00206204E0D4E9012116F8010B90475F
:10115000BAF1010AF7D22078C00602D52046FFF77F
:1011600054F96E4609E016F8010B3E280FD0D4E979
:1011700001219047206A401C2062B8F10108F2D298
:101180002046FFF758F909B00320BDE8F08F206A28
:101190002844206203E0D4E90121302090476D1EED
:1011A000EBD3F8E7222C000002FCFFFF01694A1C88
:1011B00002610878704700B58FB0CDE90131002198
:1011C000059105497944CDE9031011466846FFF7BA
:1011D000FFFA0FB000BD0000E5FFFFFF10B5436947
:1011E00013B1AFF3008001E0FFF748F9012010BD13
:1011F000127800F124010A7000224A700122EDE702
:1012000011684FF0FF32E9E710B5436913B1AFF34E
:10121000008001E0FFF7BEF9012010BD128800F147
:10122000240182840022C2840122EDE711684FF07C
:10123000FF32E9E7007B00F08000704710B54248BC
:10124000542100F099FA4148542100F095FA4048A1
:10125000542100F091FA3F493B483C4A3F4B08601B
:101260003D490A603A491960531C0365481C1065E2
:10127000012008653B48344A39A1784400F0CEF992
:1012800020B9384878440A3800F06FFA37482F4AB6
:1012900035A1784400F0C2F920B9344878440A38BE
:1012A00000F063FA32482A4A2FA1784400F0B6F9D8
:1012B00020B92F4878440A3800F057FA40232248D2
:1012C000DC000021224600F085F920B12548784451
:1012D000543800F04AFA1D4822464023002100F00D
:1012E00079F920B121487844543800F03EFA184882
:1012F00022461023002100F06DF9002806D01C487A
:101300007844BDE81040563800F02FBA10BD1048A0
:1013100070B5006D20F001040B4800F0F7F90B48A0
:1013200000F0F4F90A4800F0F1F909E0206D20F02E
:101330000105204600F0EAF9204600F071F82C463D
:10134000002CF3D170BD0000180001206C000120BA
:10135000C00001200000012004000120080001203D
:10136000720000000E2A000077000000FD29000036
:10137000D62900002DE9F04116460C46054600F03E
:1013800043F8036893F80101012807D0FF2C12D815
:10139000185D80B101202C70BDE8F081D3F8070101
:1013A0003246214603F20713C7182846BC46BDE85B
:1013B000F041002360474FF0FF30EDE7754600F045
:1013C00003FAAE4605006946534620F007008546FD
:1013D00018B020B5FEF7BAFFBDE820404FF0000678
:1013E0004FF000074FF000084FF0000BAC46ACE8A0
:1013F000C009ACE8C009ACE8C009ACE8C00921F0FC
:1014000007018D467047000010B500F005F8001D7B
:1014100010BD00BF3926000000487047340101208C
:1014200070B50446051F00F0D3F90068002C14BF06
:10143000446870BD002C18BFAC423CBF20466468B5
:10144000F8D301680A18AA4218BF456003D12A6878
:1014500005461144016028684119A1421CBF6C6017
:1014600070BD6168696021680844286070BD000033
:101470002DE9F0411F46044603260168072A01F4BE
:10148000006004DB08B116A505E016A503E008B16D
:1014900015A500E015A521F010002060A069C01E70
:1014A000A0610FB1401EA0612046FEF7AEFF4FB114
:1014B000D4E9012138469047206A401C2062C01CB4
:1014C000206206E0206AFAE7D4E9012115F8010B51
:1014D0009047761EF8D22046FEF7ADFFBDE8F081BA
:1014E0004E414E006E616E00494E4600696E6600C8
:1014F0002DE9F047814616468AB0354878440DC834
:101500008DE80D0032487844801C03AC0DC884E897
:101510000D0041F69B300844372190FBF1F290FB1F
:10152000F1F5A5F1800501FB12041B3C02D56442D4
:10153000012000E00020DFF898A080460027FA4450
:10154000AAF1BE0A0EE0E0070AD03246684607EB71
:10155000470101230AEB810102F00BF98DE8070036
:1015600064107F1C002CEED1194F7F44AE3F19E070
:10157000E80715D007EB04100DF1180A90E80E00EB
:101580008AE80E00C068F04201D1981908903246EE
:10159000012306A903A802F0ECF803AB83E80700D7
:1015A0006D10641C002DE3D14FF0010332466946F3
:1015B000B8F1000F03A802D002F0C6F801E002F073
:1015C000D8F8C9E90001C9F808200AB0BDE8F087D9
:1015D0006C27000070B5C468A50713D0650211D44C
:1015E000B2F5807F09D0B2F5007F06D0B2F5806FEA
:1015F00008D1012300F1240106E05D1E6FF07F4653
:10160000B54201D3012070BD0161C361416024F482
:1016100070611143C160002070BD00002DE9F041F0
:101620000C461646070047D0104600F06FF82078A9
:10163000611C61280AD0722802D077283CD102E0D0
:101640000125002405E00225042402E0082448F2D4
:10165000020511F8010B2B2806D0622809D011F8D9
:10166000010C74280AD00BE045F0030544F0020495
:10167000EFE745F0040544F00104EAE744F0100404
:101680003846214601F000F8411C15D00021316197
:1016900071604FF40071F560F1617061200704D54D
:1016A00030460222002100F00DF9306D40F00100BB
:1016B00030653046BDE8F0810020FBE72DE9F041C0
:1016C0000D460646104C206DC10704D0410804D0D9
:1016D00020F00104F7E722460EE0542000F0C3F8A2
:1016E00007000ED0206D47F001010843542120650A
:1016F000384600F041F83A4629463046BDE8F04108
:101700008CE70020D6E70000180001202DE9F04703
:1017100004464FF000094FF0FF37C568D4E904864E
:10172000A80707D0204600F07DF9304600F03CFFC6
:10173000002802DA3846BDE8F087280502D5404681
:10174000FFF76EFE4C21204600F016F8206D20F0C9
:10175000010020654846EEE710B50446AFF300806F
:101760002046BDE81040FEF7DABD10B500F0A4F940
:10177000BDE8104000F09AB94FF0000200B51346E2
:1017800094469646203922BFA0E80C50A0E80C50A1
:10179000B1F12001BFF4F7AF090728BFA0E80C5052
:1017A00048BF0CC05DF804EB890028BF40F8042B4B
:1017B00008BF704748BF20F8022B11F0804F18BFB8
:1017C00000F8012B70470000004870471401012009
:1017D000004870471C0101207047704770477047F0
:1017E00038B504460A4600206946AFF30080002859
:1017F00008BF38BD02460099204600F084F9012058
:1018000038BD012000F0D3B9F8B5AFF3008005462C
:1018100000200C46102000BF0646A819A0420DD992
:10182000324669460020AFF30080070008BF00F091
:10183000BEF90098A04218BF0546C419FFF7C8FFBB
:1018400005600746F01D20F007004619284600F005
:1018500053F9B44208BFF8BDA21B31463868BDE851
:10186000F84000F050B970B50646FFF7B1FF0568C3
:1018700006F10B0020F00704B4429CBF002070BDAD
:101880002B466A68BAB11068A04210D304F108016F
:1018900088423CBF5068586007D3516810194160B6
:1018A0001168091B016058601460101D70BD13465B
:1018B0005268002AE7D121462846FFF791FF002809
:1018C000DED170BD2DE9F041044616460D4647694C
:1018D000007B80072ED0384600F0B2FE50BB3EB3EE
:1018E000012E02D0022E25D104E0204600F025F979
:1018F00005441DE0384600F07FFEE168002841F015
:101900001001E16005DA204600F058F80120BDE83A
:10191000F081C9030BD56268E16A914200D8114693
:10192000A26911442269891A814200DD08460544F2
:10193000002D01DA0220EAE7E16A6068E26881428C
:1019400006D29103E06203D522F4003141F0100287
:10195000A6690027AE4213DCE16A814201D90B4639
:1019600000E0034603EB060C2369ACEB030CAC452B
:1019700006DD814201D98C4600E084469C4505D1B4
:10198000A760276042F02000A5620DE0AD1BE6696C
:10199000AE1B8142A66000D90846C01A281A2060F2
:1019A0005819606022F0200003490840E0600020E0
:1019B00084F84870ABE70000BFCFD7FFC16821F4BF
:1019C000001141F08001C160002181600160704719
:1019D0002DE9F047814614460E464FF0FF38324855
:1019E000D5685769054209D03846A16900F094FED0
:1019F000002811DB2C48C0430540E5602B463246E9
:101A00004946384600F0B4FEA16920F00042B21AFF
:101A100011440028A16103D02046FFF7CFFF4046C4
:101A2000BDE8F08770B504460569C06A6168884200
:101A300000D80846E16821F42011E160C90312D5FD
:101A4000A84208D02246411B2846FFF7C1FF10B12B
:101A50004FF0FF3070BD0020E562C4E90150E0683E
:101A600020F48030E060002070BD10B50446C068EE
:101A700020F02000E060A16AA06988420DD02046D5
:101A8000FFF7D0FFE06820F4405040F01000E06025
:101A9000A06AA0612069E062606044F24001E068F1
:101AA0008843E06010BD000010000200002801D053
:101AB00000F01CB87047000010B5014602A000F00D
:101AC0005DF8012010BD000053494752545245446F
:101AD0003A2052656469726563743A2063616E27C7
:101AE00074206F70656E3A200000000001491820D4
:101AF000ABBEFEE72600020000210160C0E9011034
:101B0000704710207047034640688C46002818BF75
:101B100088423CBF03464068F8D31868184488429E
:101B200007D00CF1030020F00700001D411A521AE3
:101B30000146081D0A60FFF773BC10B50146C26874
:101B4000900703D0900607D5886A0AE000F0CEF827
:101B500001210160881E10BD8B69486818440B691B
:101B6000C01A91F848301BB191F84910401A10BDC5
:101B70001103FCD50028FADD401E10BD70B50546E6
:101B80000C460A2000E06D1C00F09CF835B1287866
:101B90000028F8D102E0641C00F094F814B1207819
:101BA0000028F8D1BDE870400A2000F08BB810B5CD
:101BB00000F0A2F8BDE81040FFF778BF2DE9FE4F16
:101BC00000274FF48074BA4620468DF80070FFF766
:101BD0004AFE5FEA000801D1FFF7E9FF21464046CF
:101BE00000F077F8060009D04FF0010B4546C146DA
:101BF00016F8014B8FB15C2C16D01CE008F10800E0
:101C00004146C8F800000020C8F80400D8F8004099
:101C10002070012003B0BDE8F08F222C01D0272CCA
:101C20000FD12746BA462CE03078222807D05C280E
:101C300005D0272803D0BC4203D1002721E0761C21
:101C400004464CB12FB9202C06D0A4F10900042879
:101C500002D905F8014BCBE74D4502D1BAF1000F8F
:101C60000FD052464946002005F8010B6846AFF3F5
:101C700000809DF8000068B14D464FF0000A0BF15E
:101C8000010B002CB4D14FEA8B00FFF7ECFD0400F0
:101C900002D004E0A946F0E70020FFF788FF002605
:101CA0004046C4F8008005E010F8011B11B9761C0D
:101CB00044F82600A842F7D32146002044F8260025
:101CC0003046A7E708B569468DF800000320ABBE93
:101CD00008BD1CB50446CDE9000169461520ABBE20
:101CE00008B100201CBD20461CBD7047004870474D
:101CF000140101207047704710B5012805D000215C
:101D000003A0FFF73BFF012010BD09A1F8E7000089
:101D100053494752544D454D3A204F7574206F66D4
:101D20002068656170206D656D6F7279000000003C
:101D30003A2048656170206D656D6F727920636F20
:101D4000727275707465640043F61440C4F2010049
:101D5000016841F40051016043F60040C4F2010003
:101D6000016821F40051016041F60C40C4F200000A
:101D7000016841F00101016041F60040C4F2000039
:101D8000016841F00101016070470000000000009F
:101D900081B043F63000C4F20200016841F0200136
:101DA0000160006800F02000009041F20040C4F2A1
:101DB0000200016841F00A01016041F20440C4F2EE
:101DC0000200016841F00301016041F20840C4F2E1
:101DD0000200016841F00F01016041F22040C4F2AD
:101DE0000200016841F04401016001B07047000049
:101DF00043F64000C4F20200016841F48001016032
:101E000045F60000C4F20000016821F00101016004
:101E100045F61001C4F2000140F60F32C2F2100282
:101E20000A60016841F00101016070470000000094
:101E300081B0009040F68060CEF200000068C007DC
:101E4000002816D0FFE740F60060CEF200000068E0
:101E5000C00700280DD0FFE7FFE74FF060400068A3
:101E6000002801D1FFE7F8E700984FF060410870C3
:101E7000FFE7009801B070474EF68850CEF20000A0
:101E8000016841F4700101604EF60850CEF2000086
:101E90004FF000610160704740F21440C4F202004C
:101EA000016881F48041016040F61000C4F2000036
:101EB000016821F00201016040F27810C2F20100D5
:101EC000007801283DD1FFE740F62000C4F2000071
:101ED000016821F00A01016040F2A010C2F2010085
:101EE0000078002821D1FFE740F23440C4F200001E
:101EF000006840F27A11C2F20101088040F6340015
:101F0000C4F20000006840F27811C2F201010978C1
:101F100040F27412C2F2010222F8110040F288105D
:101F2000C2F2010001210170FFE740F27810C2F215
:101F300001000021017040F2A010C2F20100017006
:101F400033E040F28810C2F20100007800281DD171
:101F5000FFE740F63400C4F20000006840F2781158
:101F6000C2F20101097840F27412C2F2010222F8B1
:101F7000110040F62000C4F20000016821F00A01BF
:101F80000160016841F00201016006E040F2A0102A
:101F9000C2F2010001210170FFE740F27810C2F2A5
:101FA0000100017801310170FFE770470000000077
:101FB00080B541F21000C4F20000016821F0010177
:101FC000016041F20000C4F20000016821F001014B
:101FD000016000F059FD41F20040C4F200000168C8
:101FE00041F001010160362000F0A2FA43F6400002
:101FF000C4F20200016821F01001016080BD000000
:1020000041F21040C4F20000016821F001010160BA
:1020100040F2D010C2F201000121017040F21440E0
:10202000C4F20200016881F0800101607047000085
:1020300041F61040C4F20000016821F00101016086
:1020400040F61000C4F2020000688004002809D5A0
:10205000FFE740F27E10C2F20100017881F0010139
:102060000170FFE743F60040C4F20100016841F44B
:10207000005101607047000081B043F64400C4F293
:102080000200016841F001010160006800F00100F8
:1020900000902820C4F2010040F2CF2101602C20E2
:1020A000C4F201004FF47A7101603820C4F20100DB
:1020B000192101601820C4F20100016841F4D041E7
:1020C00001600020C4F20100016841F0800101605C
:1020D0002021C4F201010A6842F040020A60442152
:1020E000C4F201010A6842F400420A601421C4F2F9
:1020F00001010A6842F001020A6040F20041C4F2A4
:1021000002010A6842F002020A6040F22041C4F271
:1021100002010A6842F001020A60016841F001010F
:10212000016001B07047000081B043F64000C4F286
:102130000200016841F009010160016801F0090134
:10214000009140F62C41C4F20001B4220A6040F62E
:102150001841C4F200010A681823C0F201031A43AF
:102160000A6040F60041C4F200010A6842F08802A9
:102170000A6040F61442C4F20002136843F00103FF
:10218000136040F62042C4F20002136843F00103DA
:10219000136040F60842C4F20002136843F480332F
:1021A00013602822C4F2000240F2E73313602C22AD
:1021B000C4F200024FF4347313600422C4F200022C
:1021C000136843F0200313600822C4F2000213686E
:1021D00043F0800313604FF08042136843F0010323
:1021E000136043F63002C4F20202136843F00103A5
:1021F0001360006800F0010000900020C4F20200AB
:10220000026842F0020202602020C4F2020002686A
:1022100042F002020260086840F00100086001B06C
:10222000704700000000000080B582B00020C4F2BA
:102230000200016841F4005101602020C4F2020054
:10224000016841F00071016040F20040C4F20200F8
:10225000016841F40051016040F22040C4F20200E4
:10226000016841F00071016043F64000C4F20200D1
:10227000016841F006010160006800F0060001906D
:1022800040F22C40C4F200004FF6FF71016040F2B2
:102290001840C4F20000026842F00102026040F2FD
:1022A0002040C4F20000026842F00A0202600268A4
:1022B00042F00102026040F20840C4F200000268ED
:1022C00042F0D0020260026842F00402026040F272
:1022D0000440C4F20000026842F02002026040F6AE
:1022E0002C00C4F20000016040F61800C4F20000A7
:1022F000016841F00101016040F62000C4F20000D5
:10230000016841F00A010160016841F001010160CA
:1023100040F60800C4F20000016841F0A00101602D
:10232000016841F00701016040F60C00C4F20000B2
:10233000016841F0020101601E2000F019F940F22D
:102340000040C4F20000016841F00101016040F664
:102350000000C4F20000016841F00101016002B018
:1023600080BD00000000000080B582B043F6400050
:10237000C4F20200016841F010010160006800F041
:102380001000019041F22800C4F20000D721016042
:1023900041F22C00C4F200004FF47A710160362043
:1023A00000F0E6F841F20C00C4F20000016841F0D0
:1023B0000101016041F20000C4F20000016841F037
:1023C0000101016002B080BD80B582B043F64000DB
:1023D000C4F20200016841F020010160016801F0CF
:1023E0002001019141F22841C4F2000140F2CF22C4
:1023F0000A6041F22C41C4F200014FF47A720A6083
:1024000043F63001C4F202010A6842F002020A6097
:10241000006800F00200019040F20040C4F20200A7
:10242000016844F20002C1F200021143016037204A
:1024300000F09EF841F20C40C4F20000016841F047
:102440000101016002B080BD43F69000C4F20200B9
:10245000016841F01001016043F64000C4F202003F
:10246000016841F48021016044F60C00C4F20000D0
:102470004FF41C71016044F60000C4F200000168D2
:1024800041F400410160016841F00101016001680F
:1024900041F00801016043F63000C4F20200016817
:1024A00041F00801016040F60040C4F202000168FA
:1024B00041F40031016040F62440C4F2020001689A
:1024C00041F007010160704782B0019004208DF84F
:1024D0000300FFE79DF8030001281ADBFFE7FFE791
:1024E00044F61C00C4F2000000680006002801D475
:1024F000FFE7F5E70198411C0191007844F62801B7
:10250000C4F2000108609DF8030001388DF8030053
:10251000E0E7FFE744F61C00C4F200000068400654
:10252000002801D4FFE7F5E702B070470000000083
:1025300081B001468DF803009DF90300002813D4F3
:10254000FFE79DF9030000F01F01012202FA01F1EB
:1025500040094EF28012CEF2000242F82010BFF382
:102560004F8FBFF36F8FFFE701B07047000000008F
:1025700081B001468DF803009DF9030000280FD4B7
:10258000FFE79DF9030000F01F01012202FA01F1AB
:1025900040094EF20012CEF2000242F82010FFE78E
:1025A00001B070470000000083B00190019848F22C
:1025B0000101884200900CD0FFE748F20200009928
:1025C000814209D0FFE748F203000099814206D01A
:1025D00008E00020029009E00020029006E00020C0
:1025E000029003E04FF0FF300290FFE7029803B043
:1025F000704700000000000083B00190019848F28D
:102600000101884200900CD0FFE748F202000099D7
:10261000814209D0FFE748F203000099814206D0C9
:1026200008E00020029008E00020029005E0002071
:10263000029002E000200290FFE7029803B070478A
:1026400083B00190019848F20101884200900CD0BB
:10265000FFE748F202000099814209D0FFE748F203
:1026600003000099814206D008E00120029008E0B2
:102670000120029005E00120029002E0002002907B
:10268000FFE7029803B0704780B584B002900191D3
:102690000298002804D1FFE74FF0FF30039036E0A6
:1026A000029800783A282ED1FFE7029843F660514D
:1026B000C0F60001FDF768FE002804D1FFE748F2EC
:1026C0000100039023E0029843F66F51C0F6000129
:1026D000FDF75AFE002804D1FFE748F202000390FC
:1026E00015E0029843F66751C0F60001FDF74CFE75
:1026F000002804D1FFE748F20300039007E04FF001
:10270000FF30039003E04FF0FF300390FFE70398A2
:1027100004B080BD0000000084B0029001910298D6
:1027200048F20101884200900CD0FFE748F2020015
:10273000009981420AD0FFE748F2030000998142E4
:1027400008D00BE04FF0FF3003900BE04FF0FF306C
:10275000039007E04FF0FF30039003E04FF0FF30AD
:102760000390FFE7039804B07047000000000000EA
:1027700080B588B00690059104920393069848F2BC
:102780000101884201900CD0FFE748F20200019954
:1027900081420AD0FFE748F203000199814219D033
:1027A0002DE04FF0FF3007902DE0FFE70498002860
:1027B0000DD0FFE70598411C059100780290029822
:1027C00000F03EFDFFE7049801380490EEE700209A
:1027D000079018E0FFE7049800280DD0FFE7059860
:1027E000411C059100780290029800F021FDFFE75E
:1027F000049801380490EEE70020079003E04FF0C2
:10280000FF300790FFE7079808B080BD0000000088
:1028100080B582B043F63000C4F20200016841F096
:1028200004010160006800F00400019043F64400D8
:10283000C4F20200016841F480410160006800F4C4
:102840008040019043F64000C4F20200016841F06C
:1028500080010160006800F08000019040F60000F7
:10286000C4F20200016821F04061016043F61400E7
:10287000C4F20100016841F02001016043F6084004
:10288000C4F20100016841F40051016043F60040C8
:10289000C4F20100016841F4005101602820FFF7F3
:1028A00067FE41F62840C4F2000040F2E7310160C3
:1028B00041F62C40C4F200004FF40771016041F66C
:1028C0000040C4F20000016841F0080101602C20C2
:1028D000FFF74EFE02B080BD82B010208DF80700D9
:1028E00000200090FFE740F20C00C2F2010090EDE2
:1028F000000A9DF8070001388DF80700C0B243F6C2
:10290000DC41C0F6000101EB800090ED001AB4EE4E
:10291000410AF1EE10FA01DAFFE7E4E79DF807005B
:102920000F2806D1FFE79DF8070001388DF8070052
:10293000FFE740F20C00C2F2010090ED000A9DF8A2
:10294000070043F6DC41C0F6000101EB800090ED8A
:10295000001A90ED012A30EE410A32EE411A80EE63
:10296000010A8DED000A9DF8070043F69C41C0F670
:10297000000101EB80009DED000A90ED001A90ED42
:10298000012A32EE412A00EE021A40F28010C2F211
:10299000010080ED001A02B0704700000000000046
:1029A00081B043F60000C4F20200016841F4A021A6
:1029B0000160FFE743F60000C4F2020000688003F4
:1029C000002801D4FFE7F5E743F60400C4F2020053
:1029D000016848F20002CFF6BC72114000910099E4
:1029E00041F20422C0F241021143016043F60000AB
:1029F000C4F20200016841F080710160FFE743F614
:102A00000000C4F2020000688001002801D4FFE742
:102A1000F5E743F60040C4F20200016841F001010D
:102A200001600068C007002802D1FFE7FFE7FEE76A
:102A300043F60800C4F20200016841F41441016049
:102A4000016841F002010160FFE743F60800C4F2AB
:102A5000020000680007002801D4FFE7F5E743F60D
:102A60000000C4F20200016821F001010160FFE7EB
:102A700043F60000C4F2020000688007002801D578
:102A8000FFE7F5E701B0704745F60400C4F2000027
:102A900001687E22C0F2022211430160016841F404
:102AA0000051016045F62800C4F200000C210160CD
:102AB000FFE745F61800C4F2000000688007002810
:102AC00001D4FFE7F5E745F62800C4F20000022133
:102AD0000160FFE745F61800C4F2000000688006B8
:102AE000002801D4FFE7F5E745F61C00C4F200001A
:102AF000016841F02001016045F60400C4F20000C5
:102B00000021016001687E22C0F2022211430160AF
:102B100045F62801C4F200010C220A60016841F464
:102B200000510160FFE745F61800C4F2000000689C
:102B30008007002801D4FFE7F5E745F62800C4F236
:102B4000000000210160FFE745F61800C4F2000014
:102B500000688006002801D4FFE7F5E745F61C0071
:102B6000C4F20000016841F02001016045F6040054
:102B7000C4F200000021016001687E22C0F202223E
:102B80001143016045F62801C4F2000104220A60E5
:102B9000016841F400510160FFE745F61800C4F2F6
:102BA000000000688007002801D4FFE7F5E745F63C
:102BB0002800C4F200000C210160FFE745F6180070
:102BC000C4F2000000688006002801D4FFE7F5E7A2
:102BD00045F61C00C4F20000016841F020010160CC
:102BE00045F60400C4F200000021016070470000B7
:102BF00080B582B00190009101A8FFF765FC0198B3
:102C000002B080BD0000000080B594B00020139099
:102C1000FFF7C6FEFFF7BCF8FFF7EAF8FFF7D4FBB3
:102C2000FFF7A2FBFFF728FAFFF70EFCFFF77CFA8D
:102C3000FFF7FAFAFFF7ECFD4FF64810C4F2510027
:102C40001290FFE740F2D010C2F201000078002895
:102C500009D0FFE700F030FA40F2D010C2F20100D4
:102C600000210170FFE740F20C00C2F2010090ED7C
:102C7000000AB3EE091AB4EE410AF1EE10FA09DDCA
:102C8000FFE740F20C00C2F2010090ED000A8DED6A
:102C9000110A04E0B3EE090A8DED110AFFE79DED7C
:102CA000110ABBEE091A30EE010A9FEDCE1A80EE32
:102CB000010A40F2A810C2F2010080ED000A90ED76
:102CC000000AB7EE001AB4EE410AF1EE10FA05DD83
:102CD000FFE7B7EE000A8DED100A08E040F2A810F9
:102CE000C2F2010090ED000A8DED100AFFE79DEDA4
:102CF000100A40F2A810C2F2010080ED000A40F272
:102D00008C10C2F2010090ED000A9FEDB71AB4EEEC
:102D1000410AF1EE10FA09DDFFE740F28C10C2F231
:102D2000010090ED000A8DED0F0A04E09FEDAE0A60
:102D30008DED0F0AFFE79DED0F0A9FEDAC1A30EE07
:102D4000010AB6EE001A80EE010A40F2AC10C2F29F
:102D5000010080ED000A90ED000AB7EE001AB4EE13
:102D6000410AF1EE10FA05DDFFE7B7EE000A8DED3E
:102D70000E0A08E040F2AC10C2F2010090ED000A29
:102D80008DED0E0AFFE79DED0E0A40F2AC10C2F287
:102D9000010080ED000A40F2A810C2F2010090ED9F
:102DA000000A9FED931A20EE010ABCEEC00A10EE55
:102DB000100A19303821C4F20101086040F288106D
:102DC000C2F201000078002800F0A180FFE740F285
:102DD0007410C2F201000188408881420EDAFFE7D8
:102DE00040F27410C2F2010041880088C0430844D8
:102DF00040F27C11C2F2010108800FE040F2741031
:102E0000C2F2010001884088401A4FF6FE71084462
:102E100040F27C11C2F201010880FFE740F2881005
:102E2000C2F201000021017040F27C10C2F20100E8
:102E3000008840F27A11C2F20101098841EA00409B
:102E400040F29411C2F20101086008680D9100F08F
:102E5000DBF840F29810C2F2010080ED000A0C90FD
:102E6000FFF73AFD0C9890ED000A9FED621A80EE94
:102E7000010A40F28011C2F2010191ED002A20EE18
:102E8000020AB0EE002A80EE020A40F28C12C2F270
:102E9000010282ED000A0D9B93ED000AB8EE400A94
:102EA00080EE010A91ED001A20EE010A80EE020A7E
:102EB00040F2901CC2F2010C8CED000A92ED000A67
:102EC0009FED4D1A20EE010A40F29C12C2F201025F
:102ED00082ED000A40F20C02C2F2010292ED000AF9
:102EE0009FED462A9FED463A00EE023A40F210026C
:102EF000C2F2010282ED003A91ED000A20EE010AD1
:102F000040F28411C2F2010181ED000AFFE740F2B4
:102F10007E10C2F201000078002831D0FFE740F2B5
:102F20001000C2F20100006800F0ACFD41EC100B93
:102F300040F28410C2F2010000688DED0A0B00F02F
:102F4000A1FD41EC100B40F29C10C2F201000068A0
:102F50008DED080B00F096FD41EC100B684680EDFE
:102F6000020B9DED080B80ED000B9DED0A0B53EC61
:102F7000102B43F63D50C0F60000FDF7F9F930E0A4
:102F800040F20C00C2F20100006800F07BFD41EC51
:102F9000100B40F28010C2F2010000688DED060BAC
:102FA00000F070FD41EC100B40F28C10C2F20100F9
:102FB00000688DED040B00F065FD41EC100B6846D8
:102FC00080ED020B9DED040B80ED000B9DED060BDB
:102FD00053EC102B43F61C50C0F60000FDF7C8F967
:102FE000FFE72FE600000C42CDCCCC3DCDCCCCBDD4
:102FF0000000C8424054894B48F951406666E63F9C
:10300000000000420000000082B0019007208DF80F
:10301000030040F2B010C2F2010090ED000A40F24D
:10302000A410C2F2010090ED001A31EE400A80EDCA
:10303000000A00208DF80200FFE79DF802009DF8CD
:103040000310884212DAFFE79DF8020040F2B01147
:10305000C2F2010101EB8002526841F82020FFE733
:103060009DF8020001308DF80200E6E79DED010AAF
:10307000B8EE400AB2EE001A80EE010A9DF8030095
:1030800040F2B011C2F2010101EB800080ED000AB4
:103090009DF8030001EB800090ED000A40F2A410BF
:1030A000C2F2010090ED001A31EE000A80ED000A34
:1030B00090ED000A02B0704745F60400C4F200002B
:1030C00001687E22C0F2010211430160016841F4EF
:1030D00000510160FFE745F61800C4F200000068E7
:1030E0008007002801D4FFE7F5E745F62800C4F281
:1030F000000006210160FFE745F61800C4F2000059
:1031000000684006002801D4FFE7F5E745F6040013
:10311000C4F20000016821F47F010160016840F2FF
:103120000042C0F2022211430160016841F40051E3
:103130000160FFE745F61800C4F200000068400790
:10314000002801D4FFE7F5E745F62400C4F20000AB
:10315000006840F2D211C2F201010880FFE745F693
:103160001800C4F2000000684007002801D4FFE7FF
:10317000F5E745F62400C4F20000006840F2D211E1
:10318000C2F201010A8842EA00200880FFE745F602
:103190001800C4F2000000688006002801D4FFE790
:1031A000F5E745F61C00C4F20000016841F020017B
:1031B000016045F60400C4F200000021016040F205
:1031C000D210C2F2010000880004002815D5FFE7E4
:1031D00040F2D210C2F201000088404200EE100A14
:1031E000B8EEC00A9FED111A80EE010A40F20C0001
:1031F000C2F2010080ED000A15E040F2D210C2F2E6
:10320000010000886FF3DF3000EE100AB8EEC00A4C
:103210009FED051A80EE010A40F20C00C2F2010097
:1032200080ED000AFFE770470000C8420000C8C2F6
:1032300080B582B001900198FEF7FAFD02B080BD22
:1032400080B582B001900198FEF7F2FD02B080BD1A
:103250005FEA400C08BF91F0000F4FEA8C234FEA61
:10326000C12243EA51514FEA1C5018BF00F5F0400B
:103270004FEA300018BF41F000415FEA6C5C00F09B
:103280002980BCF1FF3F08BF40F080407047130C1D
:1032900006BF12044FF0100C4FF0000C130E04BFC9
:1032A00012020CF1080C130F04BF12010CF1040CF4
:1032B000930F04BF92000CF1020CD30F04BF520015
:1032C0000CF1010C11464FF00002A0F11F00A0EB21
:1032D0000C00704711F0004F08BF704731F00041FB
:1032E0003FF4D5AF0B0C06BF09044FF0100C4FF0A4
:1032F000000C0B0E04BF09020CF1080C0B0F04BFED
:1033000009010CF1040C8B0F04BF89000CF1020CB5
:10331000CB0F04BF49000CF1010CCCF1200322FAC1
:1033200003F341EA030102FA0CF2A0EB0C0000F1F6
:103330000100704723F07F4720F07F4C80EA0300B4
:1033400000F00040ACEB070303F57C5303F1FF03EF
:103350002DE9804909B44FEA144324EA03484FEAAF
:10336000154B25EA0B4E0FF2042606EB13273E7889
:1033700003FB0667C7F5000707FB06F64FEAD646CC
:1033800006F102064FEA543707FB066CCCF1005CED
:103390004FEA1C472CEA074C0CFB06F507FB06F42A
:1033A00004EB15464FEA961649085FEA320234BF2D
:1033B00000204FF000404FEAD13706FB07FC4FEAF0
:1033C0001C4C0CFB0BF7D21B03FB0CF761EB07014A
:1033D0000CFB0EF7B0EB074072EB17420CFB08F743
:1033E00034BFA2EB0742B2EB074261EB17414FEA51
:1033F0000C444FEA910706FB07FC4FEA1C4C0CFB00
:103400000BF7B0EBC74072EB573203FB0CF734BF3E
:10341000A2EBC742B2EBC74261EB57310CFB0EF790
:10342000B0EBC70072EB57720CFB08F734BFA2EB8E
:10343000C702B2EBC70261EB57714FEA816141EA03
:1034400092114FEA826242EA90124FEA806004EBE6
:10345000CC04039F4FEAD13706FB07FC4FEA1C4C14
:103460000CFB0BF7D21B03FB0CF761EB07010CFB0A
:103470000EF7B0EB074072EB17420CFB08F734BFB6
:10348000A2EB0742B2EB074261EB17414FEA8C55C2
:1034900004EB9C244FEA910706FB07FC4FEA1C4C07
:1034A0000CFB0BF7B0EBC74072EB573203FB0CF78A
:1034B00034BFA2EBC742B2EBC74261EB57310CFB02
:1034C0000EF7B0EBC70072EB57720CFB08F734BF76
:1034D000A2EBC702B2EBC70261EB57714FEA816101
:1034E00041EA92114FEA826242EA90124FEA80600A
:1034F00015EB4C2544F100044FEAD13706FB07FCDD
:103500004FEA1C4C0CFB0BF7D21B03FB0CF761EBD7
:1035100007010CFB0EF7B0EB074072EB17420CFBF8
:1035200008F734BFA2EB0742B2EB074261EB174149
:103530004FEA813141EA92414FEA823242EA9042B7
:103540004FEA80304FEA0C7615EB1C1544F100046D
:1035500048EA03434EEA0B484FF0000EB2EB080C6A
:1035600071EB030724BF624639464EEB0E0E4FF057
:10357000000B0018524149414BEB0B0BB2EB080C0E
:1035800071EB03077BF1000B24BF624639464EEB1B
:103590000E0E4FF0000B0018524149414BEB0B0B44
:1035A000B2EB080C71EB03077BF1000B24BF624602
:1035B00039464EEB0E0E51EA020718BF46F00106DF
:1035C00016EB0E7655F1000254F1000103D5BDE86B
:1035D0008901BDE80088BDE88901BDE80048B61949
:1035E000524141EB0101A3F10103704780807F7ECE
:1035F0007D7C7B7A79787776767574737271717069
:103600006F6E6E6D6C6C6B6A6A696868676666651A
:103610006464636362616160605F5F5E5E5D5D5CA8
:103620005C5B5B5A5A595958585757565655555519
:103630005454535352525251515050504F4F4F4E79
:103640004E4D4D4D4C4C4C4B4B4B4A4A4A494949C7
:103650004848484747474746464645454544444409
:103660004443434343424242424141419C46002B32
:1036700030D477002BD04FEA37071CB503B44FF096
:1036800010004FF01001BAF1000F06D0BCF1000F8E
:10369000DCBF40F0080040F008014FF000000FBC14
:1036A000BDE810400BF1010BBBF1010F08BF5FEA51
:1036B000170722BF12F1010211F101014FF0004181
:1036C00043F1000300F0004043EA00007047F9D3E3
:1036D0005708D0E746EA06464FEA164613F1400F70
:1036E0001FDD13F1200FDFBF16430A4600212033F0
:1036F0005B42BED0C3F1200746EA06464FEA1646B3
:1037000002FA07F746EA070622FA03F2C3F1200796
:1037100001FA07F742EA070221FA03F14FF000032A
:10372000A7E746EA020646EA06464FEA164646EA92
:103730000106BCBF46EA0646360C4FF000034FF0C8
:1037400000024FF0000194E72DE9804C70B49A46D6
:10375000934691E8380007C831EA400C48BF34EA84
:10376000430C03D5FFF7E6FDFFF780FFF0BCBDE893
:10377000008C2DE9804C70B49A46934691E838004D
:1037800007C810F0804F08BF13F0804F03D100F03E
:1037900005F8FFF76BFFF0BCBDE8008C20F07F4719
:1037A00023F07F4C80EA030000F0004007EB0C039D
:1037B000A3F57C53A3F1FE0392F0000F00F0B38059
:1037C00095F0000F00F077802DE901494FEA114094
:1037D00021EA00484FEA144624EA064700FB06FCAB
:1037E00008FB06F607FB08F818EB06484CEB164CEE
:1037F00000FB07F718EB07484CEB17404FEA124B5A
:1038000022EA0B4E4FEA154625EA06470BFB06FC5B
:103810000EFB06F607FB0EFE1EEB064E4CEB164C9F
:103820000BFB07F71EEB074E4CEB174B18EB0B0887
:1038300040F1000018EB0E0B58EB000840F10000BF
:103840008F1A4FF000014FF000063CBFC943661BC2
:1038500014BFB5EB040C00213CBFC943F61B4FEA73
:10386000174427EA04454FEA1C472CEA074C04FB9F
:10387000076205FB07F70CFB05F616EB074642EB64
:10388000174204FB0CFC16EB0C4642EB1C421BEBF4
:10389000060658EB020241414EEA8E0E46EA9E06AB
:1038A00001D5BDE80189B619524141EB0101A3F1EF
:1038B0000103BDE801894FEA144524EA05464FEAB1
:1038C000114721EA074C05FB07F406FB07F70CFB41
:1038D00006F111EB074144EB174405FB0CFC11EB1F
:1038E0000C4144EB1C444FEA124722EA074C05FB0B
:1038F00007F206FB07F70CFB06F616EB074642EB52
:10390000174205FB0CFC16EB0C4642EB1C456A18F3
:1039100054F1000148BF7047B619524141EB010113
:10392000A3F10103704795F0000F37D04FEA114221
:1039300021EA02464FEA144724EA074C02FB07F14A
:1039400006FB07F70CFB06F414EB074441EB1741A9
:1039500002FB0CFC14EB0C4441EB1C414FEA1547F5
:1039600025EA074C02FB07F506FB07F70CFB06F6FA
:1039700016EB074645EB174502FB0CFC16EB0C4615
:1039800045EB1C42121951F1000148BF7047B619AE
:10399000524141EB0101A3F1010370474FEA144585
:1039A00024EA05464FEA114721EA074C05FB07F1D7
:1039B00006FB07F70CFB06F212EB074241EB17413F
:1039C00005FB0CFC12EB0C4251EB1C414FF00006C6
:1039D00048BF7047921841EB0101A3F10103704702
:1039E00003B401984100009850EAC12018BF042098
:1039F0004A0D18BF40F0010040F2FF72B2EB515F78
:103A000008BF40F00200012808BF052002B070473F
:103A100030380A2801D2012070470020704700008A
:103A200010B500290AD00878002807D00548784446
:103A3000FCF7AAFC002801D0002010BD0248784401
:103A400010BD00006A0300006203000010B50029E9
:103A50000AD00878002807D005487844FCF794FC81
:103A6000002801D0002010BD0248784410BD00009D
:103A70005A030000520300000808A0F500114FEAA5
:103A80003101704743004FEAD30C4FEA3C0C4340EE
:103A90001FBF40070CF1605113F0FE4F70471CF040
:103AA000006F03D10CF00041002070470CF0004380
:103AB00043EA507040EACC0010B500F00EF800BFA9
:103AC000000000924FEA0001FFF7D6BF4FF000411F
:103AD000A1F500214FF0000070470EF1020E2EF00C
:103AE000030E5EF8044B244204D44FEA4102B2F1C3
:103AF0007F4F11D84FEA4003B3F17F4F0CD80ED15E
:103B00004FEAD07C0CEB4C0C0CF1020CB2F17F4F65
:103B100008BF4CEBD17C04E04FF0080C01E04FEA09
:103B2000D17C0CEB4C0324FA03F404F00704B4F149
:103B3000040C06D20EEB840CBDE810404CF0010CD6
:103B40006047DFE80CF0070802024FF00040A0F5E4
:103B5000800010BD0846420018BFD2F1807288BFB5
:103B600000F0004010BDF1EE100A4FF6FF71C0F2F8
:103B7000C03120EA010040F04070E1EE100A7047C9
:103B8000FDF760B8FDF794B90000000000000000E8
:103B90003031323334353637383941424344454683
:103BA000403058003031323334353637383961627D
:103BB000636465664030780004000008000000007F
:103BC000000000020001000010303132333435367D
:103BD000373839616263646566787000303132333A
:103BE0003435363738394142434445465850000051
:103BF00002400000000000A000000000054000009E
:103C0000000000C8000000000C4000000000409CC4
:103C100000000000194000000020BCBE00000000B1
:103C200034400000BFC91B8E00000004B5400000F6
:103C3000504BCFD06607E2CF010000006C4100007E
:103C40003E8251AADFEEA73401000000D9420000F5
:103C5000DCB5A0E23A301F97FFFFFFFFB44500003C
:103C6000FD25A0C8E9A3C14FFFFFFFFFFF3F0000F4
:103C70000000008000000000FF3F00000000008006
:103C8000000000003A535444455252003A53544401
:103C9000494E003A5354444F555400009A199943E1
:103CA00033B3A5433333A74333B3A8433333AA43D2
:103CB00066A6AB436626AD43CD8CAE439A59B1435D
:103CC0006626B4439AD9B6439A99B943CD4CBC43BE
:103CD0009AD9BE433373C1430040D943000020C288
:103CE000000000000000A0400000204100007041E2
:103CF0000000A0410000C8410000F0410000204247
:103D0000000048420000704200008C420000A042C7
:103D10000000B4420000C84200004843543D25342E
:103D20002E32664320536F533D25332E31666D2F5F
:103D30007320443D25312E32666D200D00543D2503
:103D4000342E32664620536F533D25332E3166663E
:103D5000742F7320443D25312E32666674200D0089
:103D60003A535444494E003A535444455252003A4F
:103D70005354444F55540000C43E00080000012035
:103D80001400000004020008D83E000818000120BA
:103D9000C0070000200200081C00000043000000D3
:103DA000F8FFFFFF0C0000000E0000000F000000F5
:103DB0002E0000001001000043000000F8FFFFFF8C
:103DC000004040404040404040404141414141402E
:103DD00040404040404040404040404040404040E3
:103DE0004005020202020202020202020202020272
:103DF0000220202020202020202020020202020277
:103E000002029090909090901010101010101010CE
:103E100010101010101010101010101002020202DA
:103E2000020288888888888808080808080808081E
:103E3000080808080808080808080808020202021A
:103E40004000000000000000000000000000000032
:103E50000000000000000000000000000000000062
:103E60000000000000000000000000000000000052
:103E70000000000000000000000000000000000042
:103E80000000000000000000000000000000000032
:103E90000000000000000000000000000000000022
:103EA0000000000000000000000000000000000012
:103EB0000000000000000000000000000000000002
:103EC00000000000000000000000000000000000F2
:083ED0000000803F0000803F6C
:0400000508000331BB
:00000001FF
